:020000040000FA
:0200000057287F
:08000800A000030EA100210E6F
:100010008300A00E200E09007F3983169B001C145C
:100020001A08831208007F3983169B0022089A0061
:100030001C158B1355309D00AA309D009C149C18F4
:100040001F288B17831208000512051405100512CE
:1000500005140510051605140510051605140510E0
:1000600005120514051005160514051005140510D4
:10007000051405108516851208000B1D3D28080083
:100080000630A500241C5528051605140510A40CDF
:10009000A50B4228051405100514051085168512B8
:1000A0000B11FF3081003D20080005124528831602
:1000B000003085009F010630810000308B008312E4
:1000C000073099000030A3000B11743081000B1D24
:1000D000672824200B11D83081000B1D6D282420A7
:1000E0000B11FF3081003D2024200B11FF308100D7
:1000F0003D202430A40040202430A40040202130A2
:10010000A40040202030A40040202F30A400402034
:100110002030A40040202830A40040202030A4003B
:1001200040202630A40040200B11963081003D2055
:100130003A30A40040203C30A40040203E30A400CF
:1001400040203A30A40040203630A400402038300F
:10015000A40040203630A40040203730A4004020C6
:100160003630A40040203730A40040203E30A400A8
:0A01700040203930A4004020BC28D4
:02400E00A43FCD
:0C4200005300750061006E006E00790034
:00000001FF
